:100000002CEF04F00000000000EF00F00000000002
:0A0010000000000000000000F3D71C
:06001C00000000001200CC
:100022000F0E0C6E470E0D6E0D2EFED70C2EFCD74A
:06003200000000001200B6
:0A003800210E0D6E0D2EFED71200F2
:100042007FBE02D08A9601D08A867FBC02D08A9473
:1000520001D08A847FBA02D08A9201D08A827FB884
:1000620002D08A9001D08A806AB002D08A8801D0F8
:100072008A988A8AD2DF8A9A7FB602D08A9601D07B
:100082008A867FB402D08A9401D08A847FB202D059
:100092008A9201D08A827FB002D08A9001D08A806F
:1000A2006AB002D08A8801D08A988A8AB6DF8A9A90
:0C00B2006AA002D0B5DF01D0BEDF120052
:0C00BE006A907EC07FF0BEDF6A801200F6
:1000CA00020E0C6E490E0D6E0D2EFED70C2EFCD7AD
:0600DA000000000012000E
:0E00E000330E0D6E0D2EFED700000000120034
:1000EE000FD0800E796E19D0C00E796E16D0940E88
:1000FE00796E13D0D40E796E10D0800E796E0DD02D
:10010E007950010AEEE07950020AEEE07950030AC6
:10011E00EEE07950040AEEE0F0D77A04006E7950E2
:10012E00002600C079F000C07FF084DF6A907D6AFF
:10013E007D507B24E96E000E7C20EA6EEE520BE0C1
:10014E007D507B24E96E000E7C20EA6EEECF7EF0B1
:0A015E00AFDF7D2AEDD76A801200A2
:10016800086A080E0C6E003408360450085ED8B0D1
:0E01780002D00826D89000360C2EF5D71200C3
:100186000B6A0A6A096A00500402F4CF09F0F3CF39
:1001960008F001500502F4CF0BF0F3CF0AF000503F
:1001A6000502F3500926F4500A22E86A0B22015090
:1001B6000402F3500926F4500A22E86A0B2208C00A
:1001C60000F009C001F00AC002F00BC003F01200F3
:1001D600086A096A100E0C6E013408360936045096
:1001E600085E0550D8A0053C095ED8B007D004507B
:1001F60008260550D8B0053C0926D89000360136A9
:060206000C2EEAD71200E5
:10020C00010E7224E96E000E7320EA6EEE50320A73
:10021C000AE1020E7224E96E000E7320EA6EEE50B3
:10022C00310A01E113D0010E7224E96E000E732025
:10023C00EA6EEE50310A0AE0010E7224E96E000EED
:10024C007320EA6EEE50300A01E009D0020E796E8E
:10025C00010E7A6E370E7B6E000E7C6E42DF010E45
:10026C007224E96E000E7320EA6EEE50320A0AE137
:10027C00020E7224E96E000E7320EA6EEE50390AFB
:10028C0001E10AD0010E7224E96E000E7320EA6EB1
:10029C00EE50330A01E009D0020E796E010E7A6E2F
:0C02AC00450E7B6E000E7C6E1CDF120005
:1002B80074C001F0010E006E015004E00036009099
:1002C800FF0FFBD700C078F0001E00C077F072C0A7
:1002D800E9FF73C0EAFF0050EF16120EE926766AAE
:1002E8007650070815E376C000F075C001F000509D
:1002F80004E00132019EFF0FFBD77750EF1601A0F3
:1003080002D07850EF12E8DE7850EF12762AE8D75C
:0A031800120EE95E8DDE8CDE12008D
:1003220074C001F0010E006E015004E0003600902E
:10033200FF0FFBD700C076F0001E72C0E9FF73C04A
:10034200EAFF0050EF16120EE9260050EF16BCDE4F
:100352007650EF12120EE95EC2DE7650EF14756E21
:100362007550000A000ED8A4010E756EADDE75C080
:0403720000F0120085
:1003760072C000F00032009E0032009E0032009EE5
:100386000032009EFA0E0024F66E080EF76E000E7E
:10039600F722000EF86E000EF8220900F5CF00F0E5
:1003A60073C0E1FF74C0E2FF00C0E6FF010E7324D4
:1003B600E16E000E7420E26E0F0E7214006EFA0EDD
:1003C6000024F66E080EF76E000EF722000EF86E89
:1003D600000EF8220900F5CF00F000C0E6FF020E7D
:0E03E6007324E16E000E7420E26EE66A1200CF
:1003F40074C001F0010E006E015004E0003600905C
:10040400FF0FFBD700C078F0001C776E766A72C0CD
:10041400E9FF73C0EAFF756A7550070820E3775057
:10042400EF16120EE9267750EF16F6DD7850EF122C
:10043400F3DD120EE95E7850EF14006E0CE075C027
:1004440001F0010E006E015004E000360090FF0F31
:10045400FBD700507612EEDDEDDD752ADDD776C0D0
:0404640000F0120092
:10046800939A939893909392939493968A9A8A984E
:100478008A968A948A928A90D0DDCFDDCEDD8A82F0
:100488008A808A8AC7DD8A9AC8DD8A8AC3DD8A9A01
:10049800C4DD8A8ABFDD8A9AC0DD8A908A8ABADD7D
:1004A8008A9ABBDD8A8AB6DD8A9A8A928A868A8A7D
:1004B800B1DD8A9AB2DD8A968A808A8AABDD8A9A09
:1004C8008A908A8AA7DD8A9AA8DD8A8AA3DD8A9A11
:1004D8008A808A8A9FDD8A9AA0DD8A908A8A9ADD34
:1004E8008A9A8A868A848A828A808A8A93DD8A9A04
:0604F80094DD6A80120091
:1004FE00840E726E0F0E736E020E746E0BDF840E10
:10050E00726E0F0E736E020E746E330E756ECDDE3E
:10051E004F0E0D6E0D2EFED700000000840E726E73
:10052E000F0E736E020E746E5EDF00C05FF00CD0A5
:10053E000C0E6B6E16D0090E6B6E13D06B6A11D04B
:10054E006B6A0FD06B6A0DD05F50280AF1E05F50D6
:10055E00100AF1E05F50010AF1E05F50FF0AF0E08F
:10056E00F1D7840E726E0F0E736E020E746ED2DEA3
:10057E00840E726E0F0E736E020E746E330E756EE7
:10058E0094DE4F0E0D6E0D2EFED700000000606A39
:10059E00616A800E006E800E6118005C02E1605090
:1005AE00070816E3620E60246C6E000E61206D6EFD
:1005BE00840E726E0F0E736E020E746E14DF6CC0AC
:1005CE00E1FF6DC0E2FF00C0E6FF604A612AE1D79D
:0205DE00120009
:1005E0000900F5CFE6FF0006FBE10106F9E1120084
:1005F000080E6B5C006E016A000E015A00C06CF0C0
:100600005DC06EF05EC06FF05EAE0AD053C0E1FF19
:1006100054C0E2FF2D0EE66E6E1E6F1E6E4A6F2AEC
:100620006CC002F06EC000F06FC001F0025005E037
:1006300001320032019EFF0FFAD700C06DF0640E48
:10064000046E92DD005206E053C0E1FF54C0E2FFA9
:10065000200EE66E010E5324706E000E5420716E53
:100660000A0E046E6DC000F07FDD0A0E046E7CDDA4
:1006700008C000F0300E002670C0E1FF71C0E2FF3C
:1006800000C0E6FF020E5324706E000E5420716EFF
:100690000A0E046E6DC000F067DD08C000F0300E79
:1006A000002670C0E1FF71C0E2FF00C0E6FF030E4C
:1006B0005324E16E000E5420E26E2E0EE66E6C5056
:1006C0000408006E016A000E015A00C002F06EC0FC
:1006D00000F06FC001F0025005E0003600900136D6
:1006E000FF0FFAD70F0E0016000E0116710E046EE2
:1006F000020E056E48DD040E5324706E000E542069
:10070000716EE80E046E030E056E65DD300E002678
:1007100070C0E1FF71C0E2FF00C0E6FF53C072F09D
:1007200054C073F073DD010E796E070E7A6E53C0FC
:100730007BF054C07CF0DBDC270E7E6EC0DC430E09
:060740007E6EBDDC12001C
:10074600840E726E0F0E736E020E746EE7DD840EEB
:10075600726E0F0E736E020E746ECC0E756EA9DD80
:10076600840E726E0F0E736E020E746E440E756EEC
:10077600A0DD4F0E0D6E0D2EFED700000000840E7C
:10078600726E0F0E736E020E746EC8DD840E726E7C
:100796000F0E736E020E746ECC0E756E8ADD840EAD
:1007A600726E0F0E736E020E746EBE0E756E81DD66
:1007B600840E726E0F0E736E020E746E18DE00C01B
:1007C6005DF0000E5E6E840E726E0F0E736E020E7C
:1007D600746E0DDE00C002F0016A01505D26025003
:0407E6005E2212007D
:1007EA002ED0010E796E010E7A6E310E7B6E000EDE
:1007FA007C6E78DC2BD0010E796E010E7A6E150EA6
:10080A007B6E000E7C6E6EDC020E796E010E7A6EC5
:10081A00200E7B6E000E7C6E65DC18D05FC072F015
:10082A005B0E736E000E746EA1DD010E796E010E01
:10083A007A6E5B0E7B6E000E7C6E54DC07D05F50C6
:0E084A00280ACFE05F50FF0AD6E0E8D7120080
:1008580085EC04F0070EB4120D0EC16E806A956A1D
:10086800030E926E9684FCDD010E7F6E21EC00F083
:100878000C0E7F6E21EC00F03EDEB3DF04D05FDFAC
:10088800B3DE05D004D05F50280AF9E0FBD7020E8A
:100898000B6E040E0C6EBA0E0D6E0D2EFED70C2EBE
:0C08A800FCD70B2EFAD70000E7D7FFD7D3
:10090A0010EE15F0460E006E010E016EB40EF66E74
:0E091A00080EF76E000EF86EF0EC02F0120000
:0B08B4004572726F72203430343A003D
:1008BF0053656E736F72206E6F7420666F756E6402
:0108CF000028
:0608D00054656D702E005E
:0E08D6004D696E2E204174696E6769646F0073
:0E08E4004D61782E204174696E6769646F0063
:0208F2005500AF
:0608F40030302E30300010
:1008FA00303132333435363738394142434445464C
:020000040030CA
:0D000100021F1EFF8381FF0FC00FE00F40A4
:00000001FF
