:10000000DEEF04F00000000000EF00F00000000050
:0A0010000000000000000000F3D71C
:06001C00000000001200CC
:100022000F0E0C6E470E0D6E0D2EFED70C2EFCD74A
:06003200000000001200B6
:0A003800210E0D6E0D2EFED71200F2
:1000420000019CBF02D08A9601D08A869CBD02D054
:100052008A9401D08A849CBB02D08A9201D08A827F
:100062009CB902D08A9001D08A8085B102D08A8858
:1000720001D08A988A8AD1DF8A9A9CB702D08A965E
:1000820001D08A869CB502D08A9401D08A849CB31E
:1000920002D08A9201D08A829CB102D08A9001D089
:1000A2008A8085B102D08A8801D08A988A8AB5DF8F
:0E00B2008A9A85A102D0B4DF01D0BDDF120012
:0E00C000000185919BC09CF0BCDF8581120081
:0A00CE00000E9EBA010E006E120033
:1000D800AECF01F0ABA202D0AB98AB8801C000F064
:0200E800120004
:1000EA00020E0C6E490E0D6E0D2EFED70C2EFCD78D
:0600FA00000000001200EE
:0E010000330E0D6E0D2EFED700000000120013
:10010E0010D0800E0001966F1AD0C00E966F17D0C9
:10011E00940E966F14D0D40E966F11D0800E966FEB
:10012E000ED000019651010AECE09651020AEDE064
:10013E009651030AEDE09651040AEDE0EFD79705CC
:10014E00006E9651002600C096F000C09CF072DF43
:10015E0085919A6B9A519825E96E000E9921EA6E57
:10016E00EE520BE09A519825E96E000E9921EA6E37
:0E017E00EECF9BF09EDF9A2BEDD7858112000D
:0E018C00ACB202D00000FCD78EC0ADFF120056
:10019A00086A096A100E0C6E0134083609360450D2
:1001AA00085E0550D8A0053C095ED8B007D00450B7
:1001BA0008260550D8B0053C0926D89000360136E5
:0601CA000C2EEAD7120022
:1001D0000B6A0A6A096A00500402F4CF09F0F3CFEF
:1001E00008F001500502F4CF0BF0F3CF0AF00050F5
:1001F0000502F3500926F4500A22E86A0B22015046
:100200000402F3500926F4500A22E86A0B2208C0BF
:1002100000F009C001F00AC002F00BC003F01200A8
:100220000001946B956B925342E09251FF0AD8A45F
:1002300092074DDF0050000A01E1FBD74DDF00C0FF
:1002400093F0000194518E25E16E000E8F21E26E35
:1002500000C0E6FF942B95519025E96E000E912188
:10026000EA6EEE50931902E1952B09D0956B90C080
:10027000E9FF91C0EAFFEE509319D8B4952B955140
:100280009025E96E000E9121EA6EEE50000A0EE113
:100290009551945D006E016A000E015A00508E2542
:1002A000E16E01508F21E26EE66A06D0BCD78EC0A7
:0A02B000E1FF8FC0E2FFE66A1200D2
:1002BA00086A080E0C6E003408360450085ED8B07E
:0E02CA0002D00826D89000360C2EF5D7120070
:1002D800010E00018E25E96E000E8F21EA6EEE50A8
:1002E800320A0AE1020E8E25E96E000E8F21EA6EAF
:1002F800EE50310A01E113D0010E8E25E96E000E91
:100308008F21EA6EEE50310A0AE0010E8E25E96E61
:10031800000E8F21EA6EEE50300A01E009D0020E7D
:10032800966F010E976F390E986F000E996FEBDE7E
:10033800010E8E25E96E000E8F21EA6EEE50320A0C
:100348000AE1020E8E25E96E000E8F21EA6EEE504C
:10035800390A01E10AD0010E8E25E96E000E8F21BF
:10036800EA6EEE50330A01E009D0020E966F010ED4
:0E037800976F490E986F000E996FC5DE120048
:1003860090C001F0010E006E015004E000360090AE
:10039600FF0FFBD700C092F0001E8EC0E9FF8FC092
:1003A600EAFF0050EF16120EE9260050EF169ADE0D
:1003B60000019251EF12120EE95E9FDE9251EF1488
:1003C600916F9151000A000ED8A4010E916F8ADE3A
:0603D60091C000F01200CE
:1003DC0090C001F0010E006E015004E00036009058
:1003EC00FF0FFBD700C094F0001E00C093F08EC02E
:1003FC00E9FF8FC0EAFF0050EF16120EE92600014C
:10040C00926B9251070815E392C000F091C001F075
:10041C00005004E00132019EFF0FFBD79351EF1601
:10042C0001A002D09451EF1265DE9451EF12922B81
:0C043C00E8D7120EE95EFADDF9DD1200CF
:100448008EC000F00032009E0032009E0032009EF6
:100458000032009E8A0E0024F66E0A0EF76E000E19
:10046800F722000EF86E000EF8220900F5CF00F012
:100478008FC0E1FF90C0E2FF00C0E6FF010E00015F
:100488008F25E16E000E9021E26E0F0E8E15006E24
:100498008A0E0024F66E0A0EF76E000EF722000E82
:1004A800F86E000EF8220900F5CF00F000C0E6FF54
:1004B800020E8F25E16E000E9021E26EE66A1200B0
:1004C80090C001F0010E006E015004E0003600906B
:1004D800FF0FFBD700C094F0001C0001936F926BD4
:1004E8008EC0E9FF8FC0EAFF916B9151070820E3A6
:1004F8009351EF16120EE9269351EF168BDD9451A6
:10050800EF1288DD120EE95E9451EF14006E0CE0D4
:1005180091C001F0010E006E015004E00036009019
:10052800FF0FFBD70050921383DD82DD912BDDD7BF
:0605380092C000F0120069
:10053E00840E00018E6F0F0E8F6F020E906F1CDFF8
:10054E00840E8E6F0F0E8F6F020E906F330E916FA3
:10055E003EDF4F0E0D6E0D2EFED700000000840EF6
:10056E008E6F0F0E8F6F020E906FA7DF00C068F0B8
:10057E000CD00C0E676F16D0090E676F13D0676B19
:10058E0011D0676B0FD0676B0DD06851280AF1E060
:10059E006851100AF1E06851010AF1E06851FF0A52
:1005AE00F0E0F1D7840E8E6F0F0E8F6F020E906FEC
:1005BE00E3DE840E8E6F0F0E8F6F020E906F330E72
:1005CE00916F05DF4F0E0D6E0D2EFED70000000051
:1005DE00716B726B800E006E800E7219005C02E100
:1005EE007151070816E3690E7125886F000E72218E
:1005FE00896F840E8E6F0F0E8F6F020E906F5DDF00
:10060E0088C0E1FF89C0E2FF00C0E6FF714B722B8C
:04061E00E1D712000E
:100622000900F5CFE6FF0006FBE10106F9E1120041
:10063200939A939893909392939493968A9A8A9882
:100642008A968A948A928A90EBDCEADCE9DC8A82D6
:100652008A808A8AE2DC8A9AE3DC8A8ADEDC8A9AE7
:10066200DFDC8A8ADADC8A9ADBDC8A908A8AD5DC49
:100672008A9AD6DC8A8AD1DC8A9A8A928A868A8A7D
:10068200CCDC8A9ACDDC8A968A808A8AC6DC8A9AEF
:100692008A908A8AC2DC8A9AC3DC8A8ABEDC8A9AF7
:1006A2008A808A8ABADC8A9ABBDC8A908A8AB5DC1A
:1006B2008A9A8A868A848A828A808A8AAEDC8A9A1E
:0806C200AFDC0001858112008C
:1006CA008C0E0001796F010E7A6F8E0E7B6F000E11
:1006DA007C6FD80E756F000E766F000E776F000E66
:1006EA00786FCE0E816F000E826F000E836F000E40
:1006FA00846FFF0E7D6FFF0E7E6F000E7F6F000E00
:10070A00806FAC8A900EAB6E948E949C9EAA03D096
:08071A00AECF00F0FBD7120086
:100722002FD0010E0001966F010E976F150E986F74
:10073200000E996FEBDC2CD0010E966F010E976FB5
:100742002E0E986F000E996FE1DC020E966F010E6D
:10075200976F1D0E986F000E996FD8DC19D068C084
:100762008EF0730E8F6F000E906F6DDE010E966F1E
:10077200010E976F730E986F000E996FC7DC08D049
:1007820000016851280ACDE06851FF0AD5E0E7D799
:02079200120053
:100794009CDC00520FE05D0E00018E6F000E8F6F27
:1007A4001B0E906F000E916F100E926F37DD5D0E71
:0607B4008E6FEADC12006A
:1007BA00080E0001675D006E016A000E015A00C052
:1007CA0088F086C08AF087C08BF087AF0AD047C00E
:1007DA00E1FF48C0E2FF2D0EE66E8A1F8B1F8A4B8F
:1007EA008B2B88C002F08AC000F08BC001F0025047
:1007FA0005E001320032019EFF0FFAD700C089F0EE
:10080A00640E046E55DD005206E047C0E1FF48C0A1
:10081A00E2FF200EE66E010E47248C6F000E482080
:10082A008D6F0A0E046E89C000F042DD0A0E046E56
:10083A003FDD08C000F0300E00268CC0E1FF8DC0FD
:10084A00E2FF00C0E6FF020E47248C6F000E48202C
:10085A008D6F0A0E046E89C000F02ADD08C000F010
:10086A00300E00268CC0E1FF8DC0E2FF00C0E6FF1B
:10087A00030E4724E16E000E4820E26E2E0EE66E4D
:10088A0088510408006E016A000E015A00C002F085
:10089A008AC000F08BC001F0025005E000360090DB
:1008AA000136FF0FFAD70F0E0016000E0116710E51
:1008BA00046E020E056E87DC040E47248C6F000E50
:1008CA0048208D6FE80E046E030E056E61DC300E53
:1008DA0000268CC0E1FF8DC0E2FF00C0E6FF47C0E2
:1008EA008EF048C08FF0F3DC010E966F070E976FFB
:1008FA0047C098F048C099F005DC270E9B6F60EC62
:0C090A0000F0430E9B6F60EC00F0120048
:10091600840E00018E6F0F0E8F6F020E906F30DD0A
:10092600840E8E6F0F0E8F6F020E906FCC0E916F2E
:1009360052DD840E8E6F0F0E8F6F020E906F440E77
:10094600916F49DD4F0E0D6E0D2EFED70000000093
:10095600840E8E6F0F0E8F6F020E906F11DD840E58
:100966008E6F0F0E8F6F020E906FCC0E916F33DD70
:10097600840E8E6F0F0E8F6F020E906FBE0E916FEC
:100986002ADD840E8E6F0F0E8F6F020E906F99DD2B
:1009960000C086F0000E876F840E8E6F0F0E8F6F6D
:1009A600020E906F8EDD00C002F0016A01508627AC
:0609B6000250872312002D
:1009BC004DEC05F0070EB4120D0EC16E806A956AEF
:1009CC00030E926E96842FDEB886B06ACF0EAF6E91
:1009DC00AC8475DE020E0B6E040E0C6EBA0E0D6E30
:1009EC000D2EFED70C2EFCD70B2EFAD70000010EC5
:1009FC009C6F21EC00F00C0E9C6F21EC00F099DD4B
:100A0C008ADEC2DE04D081DFD2DE06D005D0000142
:100A1C006851280AF8E0FAD7020E0B6E040E0C6E21
:100A2C00BA0E0D6E0D2EFED70C2EFCD70B2EFAD750
:060A3C000000E5D7FFD722
:100A9A0010EE15F0480E006E010E016E420EF66E53
:0E0AAA000A0EF76E000EF86E11EC03F012004B
:060A420054656D703A00DE
:020A48000D009F
:100A4A0053656E736F72206E6F7420666F756E6475
:010A5A00009B
:0B0A5B004572726F72203430343A0094
:0E0A66004D696E2E204174696E6769646F00E1
:020A7400570029
:0E0A76004D61782E204174696E6769646F00CF
:060A840030302E3030007E
:100A8A0030313233343536373839414243444546BA
:020000040030CA
:0E000000000C1F1EFF8381FF0FC00FE00F409A
:00000001FF
