:100000001CEF05F00000000000EF00F00000000011
:0A0010000000000000000000F3D71C
:06001C00000000001200CC
:100022000F0E0C6E470E0D6E0D2EFED70C2EFCD74A
:06003200000000001200B6
:0A003800210E0D6E0D2EFED71200F2
:10004200010146BF02D08A9601D08A8646BD02D0FF
:100052008A9401D08A8446BB02D08A9201D08A82D5
:1000620046B902D08A9001D08A800001C0B102D084
:100072008A8801D08A988A8AD0DF8A9A010146B793
:1000820002D08A9601D08A8646B502D08A9401D0DF
:100092008A8446B302D08A9201D08A8246B102D0C3
:1000A2008A9001D08A800001C0B102D08A8801D032
:1000B2008A988A8AB2DF8A9AC0A102D0B1DF01D0BF
:0400C200BADF12008F
:0E00C6000001C09145C146F1B9DFC0811200B2
:1000D400020E0C6E490E0D6E0D2EFED70C2EFCD7A3
:0600E40000000000120004
:0E00EA00330E0D6E0D2EFED70000000012002A
:1000F80010D0800E0101406F1AD0C00E406F17D08B
:10010800940E406F14D0D40E406F11D0800E406F03
:100118000ED001014051010AECE04051020AEDE025
:100128004051030AEDE04051040AEDE0EFD74105E4
:10013800006E4051002600C040F100C046F17DDF4E
:10014800C0910101446B44514225E96E000E4321E0
:10015800EA6EEE520CE044514225E96E000E43214E
:10016800EA6EEECF45F1ABDF0101442BECD700017D
:04017800C081120030
:10017C00086A080E0C6E003408360450085ED8B0BD
:0E018C0002D00826D89000360C2EF5D71200AF
:0E019A00ACB202D00000FCD739C1ADFF12009C
:1001A8000B6A0A6A096A00500402F4CF09F0F3CF17
:1001B80008F001500502F4CF0BF0F3CF0AF000501D
:1001C8000502F3500926F4500A22E86A0B2201506E
:1001D8000402F3500926F4500A22E86A0B2208C0E8
:1001E80000F009C001F00AC002F00BC003F01200D1
:1001F800010E01013925E96E000E3A21EA6E3BC174
:10020800D9FF3CC1DAFFEE50DE181CE1020E392599
:10021800016E000E3A21026E010E3B25D96E000ECA
:100228003C21DA6E01C0E9FF02C0EAFFEE50DE1899
:1002380009E1020E406F010E416F150E426F000E6C
:10024800436F56DF010E01013925E96E000E3A2190
:10025800EA6E020E3B25D96E000E3C21DA6EEE5096
:10026800DE180AE1020E3925E96E000E3A21EA6E1F
:10027800EE50390A01E114D0010E3925016E000E45
:100288003A21026E030E3B25D96E000E3C21DA6E30
:1002980001C0E9FF02C0EAFFEE50DE1801E009D014
:1002A800020E406F010E416F450E426F000E436F04
:0402B8001FDF120032
:1002BC00086A096A100E0C6E0134083609360450AF
:1002CC00085E0550D8A0053C095ED8B007D0045094
:1002DC0008260550D8B0053C0926D89000360136C2
:0602EC000C2EEAD71200FF
:1002F2003BC101F0010E006E015004E00036009097
:10030200FF0FFBD700C03DF1001E39C1E9FF3AC122
:10031200EAFF0050EF16120EE9260050EF16D9DE62
:1003220001013D51EF12120EE95EDEDE3D51EF1486
:100332003C6F3C51000A000ED8A4010E3C6FC9DE8E
:060342003CC100F01200B6
:1003480039C100F00032009E0032009E0032009E4B
:100358000032009EAB0E0024F66E0B0EF76E000EF8
:10036800F722000EF86E000EF8220900F5CF00F013
:100378003AC1E1FF3BC1E2FF00C0E6FF010E010107
:100388003A25E16E000E3B21E26E0F0E3915006E24
:10039800AB0E0024F66E0B0EF76E000EF722000E61
:1003A800F86E000EF8220900F5CF00F000C0E6FF55
:1003B800020E3A25E16E000E3B21E26EE66A12005B
:1003C800AECF01F0ABA202D0AB98AB8801C000F071
:0203D800120011
:1003DA003BC101F0010E006E015004E000360090AE
:1003EA00FF0FFBD700C03FF1001C01013E6F3D6BC0
:1003FA0039C1E9FF3AC1EAFF3C6B3C51070820E3E7
:10040A003E51EF16120EE9263E51EF1602DE3F511B
:10041A00EF12FFDD120EE95E3F51EF14006E0CE0A1
:10042A003CC101F0010E006E015004E0003600905C
:10043A00FF0FFBD700503D13FADDF9DD3C2BDDD76A
:06044A003DC100F01200AC
:0A045000000E9EBA010E006E1200AD
:10045A003BC101F0010E006E015004E0003600902D
:10046A00FF0FFBD700C03FF1001E00C03EF139C1AB
:10047A00E9FF3AC1EAFF0050EF16120EE926010120
:10048A003D6B3D51070815E33DC100F03CC101F049
:10049A00005004E00132019EFF0FFBD73E51EF16D8
:1004AA0001A002D03F51EF121BDE3F51EF123D2B4C
:0C04BA00E8D7120EE95EBBDDBADD1200CF
:1004C6009A0E0001BC6F010EBD6F390EBE6F010E94
:1004D600BF6FC80EC16F030EC26F000EC36F000E52
:1004E600C46F500EC96F040ECA6F000ECB6F000E9C
:1004F600CC6FFF0EC56FFF0EC66F000EC76F000EE6
:10050600C86FAC8A900EAB6E948E949C9EAA03D054
:08051600AECF00F0FBD712008C
:10051E000900F5CFE6FF0006FBE10106F9E1120046
:10052E000101346B31C1E9FF32C1EAFFEECF33F185
:10053E003351000A0EE033C139F128DE0101342BAC
:10054E0034513125E96E000E3221EA6EEECF33F1D1
:04055E00EFD71200C1
:10056200939A939893909392939493968A9A8A9853
:100572008A968A948A928A9053DD52DD51DD8A826C
:100582008A808A8A4ADD8A9A4BDD8A8A46DD8A9A7D
:1005920047DD8A8A42DD8A9A43DD8A908A8A3DDD76
:1005A2008A9A3EDD8A8A39DD8A9A8A928A868A8A7C
:1005B20034DD8A9A35DD8A968A808A8A2EDD8A9A85
:1005C2008A908A8A2ADD8A9A2BDD8A8A26DD8A9A8D
:1005D2008A808A8A22DD8A9A23DD8A908A8A1DDDB0
:1005E2008A9A8A868A848A828A808A8A16DD8A9A86
:0805F20017DD0001C0811200B9
:1005FA00840E0101396F0F0E3A6F020E3B6F74DEE3
:10060A00840E396F0F0E3A6F020E3B6FCC0E3C6FA1
:10061A001FDF840E396F0F0E3A6F020E3B6F440EC6
:10062A003C6F16DF4F0E0D6E0D2EFED70000000038
:10063A00840E396F0F0E3A6F020E3B6F55DE840E31
:10064A00396F0F0E3A6F020E3B6FCC0E3C6F00DF14
:10065A00840E396F0F0E3A6F020E3B6FBE0E3C6F5F
:10066A00F7DE840E396F0F0E3A6F020E3B6FB0DE63
:10067A0000C0BAF0000E0001BB6F840E0101396F91
:10068A000F0E3A6F020E3B6FA3DE00C002F0016A42
:0C069A0001500001BA270250BB231200DF
:1006A600080E0001AC5D006E016A000E015A00C022
:1006B60031F1BAC033F1BBC034F1BBAF0BD0A2C02D
:1006C600E1FFA3C0E2FF2D0EE66E0101331F341FCA
:1006D600334B342B31C102F033C100F034C101F089
:1006E600025005E001320032019EFF0FFAD700C02A
:1006F60032F1640E046E3FDD005206E0A2C0E1FF57
:10070600A3C0E2FF200EE66E010E0001A225010144
:10071600356F000E0001A3210101366F0A0E046E2B
:1007260032C100F028DD0A0E046E25DD08C000F097
:10073600300E002635C1E1FF36C1E2FF00C0E6FFFC
:10074600020E0001A2250101356F000E0001A32152
:100756000101366F0A0E046E32C100F00CDD08C0CE
:1007660000F0300E002635C1E1FF36C1E2FF00C0C1
:10077600E6FF030E0001A225E16E000EA321E26E44
:100786002E0EE66E010131510408006E016A000E5C
:10079600015A00C002F033C100F034C101F002502A
:1007A60005E0003600900136FF0FFAD70F0E00164F
:1007B600000E0116710E046E020E056EF2DC040EBA
:1007C6000001A2250101356F000E0001A3210101E0
:1007D600366FE80E046E030E056E6DDD300E0026D4
:1007E60035C1E1FF36C1E2FF00C0E6FFA2C039F124
:1007F600A3C03AF1CD0E3B6F000E3C6FFADC010E42
:100806000101406F070E416FA2C042F1A3C043F140
:1008160070DC270E0101456F53DC430E0101456F65
:040826004FDC120091
:10082A000101376B386B355342E03551FF0AD8A4C2
:10083A00350709DE0050000A01E1FBD7C0DD00C020
:10084A0036F1010137513125E16E000E3221E26E97
:10085A0000C0E6FF372B38513325E96E000E3421EC
:10086A00EA6EEE50361902E1382B09D0386B33C1E3
:10087A00E9FF34C1EAFFEE503619D8B4382B3851A3
:10088A003325E96E000E3421EA6EEE50000A0EE1BD
:10089A003851375D006E016A000E015A0050312549
:1008AA00E16E01503221E26EE66A06D0BCD731C150
:0A08BA00E1FF32C1E2FFE66A12001E
:1008C400840E0101396F0F0E3A6F020E3B6F0FDD7C
:1008D400840E396F0F0E3A6F020E3B6F330E3C6F6E
:1008E400BADD4F0E0D6E0D2EFED700000000840EF3
:1008F400396F0F0E3A6F020E3B6F6DDD00C0B9F019
:100904000DD00C0E0001AC6F17D0090EAC6F14D0D3
:10091400AC6B12D0AC6B10D0AC6B0ED00001B951E3
:10092400280AEFE0B951100AF0E0B951010AF0E0E9
:10093400B951FF0AEFE0F0D7840E0101396F0F0EB1
:100944003A6F020E3B6FD3DC840E396F0F0E3A6F91
:10095400020E3B6F330E3C6F7EDD4F0E0D6E0D2E7F
:10096400FED7000000000001AF6BB06B800E006E7C
:10097400800EB019005C02E1AF5107081AE3B10E12
:10098400AF250101316F000E0001B0210101326F6A
:10099400840E396F0F0E3A6F020E3B6F1CDD31C1AE
:1009A400E1FF32C1E2FF00C0E6FF0001AF4BB02B14
:0409B400DDD7120079
:1009B80036D0010E0101406F010E416F230E426FC8
:1009C800000E436F7CEC00F032D0010E0101406F45
:1009D800010E416F3A0E426F000E436F7CEC00F03F
:1009E800020E0101406F010E416F290E426F000E89
:1009F800436F7CEC00F01BD0B9C039F1AD0E01019A
:100A08003A6F000E3B6F9CDC010E406F010E416F88
:100A1800AD0E426F000E436F7CEC00F008D0000171
:100A2800B951280AC6E0B951FF0ACFE0E5D712004C
:100A3800DEEC05F0B886B06ACF0EAF6EAC843FDD51
:100A4800020E0B6E040E0C6EBA0E0D6E0D2EFED736
:100A58000C2EFCD70B2EFAD700000D0EC16E806A43
:100A6800030E926E968479DD020E0B6E040E0C6EE8
:100A7800BA0E0D6E0D2EFED70C2EFCD70B2EFAD704
:100A88000000010E0101466F21EC00F00C0E01017F
:100A9800466F21EC00F05E0E0101316F000E326FDF
:100AA80042DD0CDF85DFD0DC0050010A16E1530E71
:100AB8000101316F000E326F36DDCD0E316F000E41
:100AC800326FA40E336F000E346F0A0E356FA9DE35
:100AD800CD0E316F000E326F26DD04D08ADDDFDDEA
:100AE80006D005D00001B951280AF8E0FAD7020E5D
:100AF8000B6E040E0C6EBA0E0D6E0D2EFED70C2E5C
:0C0B0800FCD70B2EFAD70000CCD7FFD78B
:100BBC0010EE15F0970E006E010E016E140EF66E0F
:0E0BCC000B0EF76E000EF86E8FEC02F01200AA
:0E0B14004D61782E204174696E6769646F0030
:060B220054656D703A00FD
:100B280053656E736F72206E6F7420666F756E6496
:010B380000BC
:0B0B39004572726F72203430343A00B5
:0E0B44004D696E2E204174696E6769646F0002
:0B0B52006461746120726561647900C9
:100B5D0054656D706572617475726173204D617845
:100B6D00696D61732065206D696E696D61733A20E1
:100B7D003C6578656D706C6F3A2032342C32312EB5
:100B8D0020656E746572207061726120656E766984
:040B9D0061723E0043
:020BA100A600AC
:020BA3000D0043
:060BA50030302E3030005C
:100BAB003031323334353637383941424344454698
:020000040030CA
:0E000000000C1F1EFF8381FF0FC00FE00F409A
:00000001FF
