:1000000002EF05F00000000000EF00F0000000002B
:0A0010000000000000000000F3D71C
:06001C00000000001200CC
:100022000F0E0C6E470E0D6E0D2EFED70C2EFCD74A
:06003200000000001200B6
:0A003800210E0D6E0D2EFED71200F2
:100042000001C0BF02D08A9601D08A86C0BD02D00C
:100052008A9401D08A84C0BB02D08A9201D08A825B
:10006200C0B902D08A9001D08A809DB102D08A881C
:1000720001D08A988A8AD1DF8A9AC0B702D08A963A
:1000820001D08A86C0B502D08A9401D08A84C0B3D6
:1000920002D08A9201D08A82C0B102D08A9001D065
:1000A2008A809DB102D08A8801D08A988A8AB5DF77
:0E00B2008A9A9DA102D0B4DF01D0BDDF1200FA
:0E00C00000019D91BFC0C0F0BCDF9D81120009
:1000CE00AECF01F0ABA202D0AB98AB8801C000F06E
:0200DE0012000E
:0A00E000000E9EBA010E006E120021
:0E00EA00330E0D6E0D2EFED70000000012002A
:1000F800020E0C6E490E0D6E0D2EFED70C2EFCD77F
:06010800000000001200DF
:10010E0010D0800E0001BA6F1AD0C00EBA6F17D081
:10011E00940EBA6F14D0D40EBA6F11D0800EBA6F7F
:10012E000ED00001BA51010AECE0BA51020AEDE01C
:10013E00BA51030AEDE0BA51040AEDE0EFD7BB0560
:10014E00006EBA51002600C0BAF000C0C0F072DFD7
:10015E009D91BE6BBE51BC25E96E000EBD21EA6EAF
:10016E00EE520BE0BE51BC25E96E000EBD21EA6ECB
:0E017E00EECFBFF09EDFBE2BEDD79D811200AD
:0E018C00ACB202D00000FCD7BAC0ADFF12002A
:10019A00086A096A100E0C6E0134083609360450D2
:1001AA00085E0550D8A0053C095ED8B007D00450B7
:1001BA0008260550D8B0053C0926D89000360136E5
:0601CA000C2EEAD7120022
:1001D000B4C001F0010E006E015004E00036009042
:1001E000FF0FFBD700C0B8F0001C0001B76FB66B63
:1001F000B2C0E9FFB3C0EAFFB56BB551070820E311
:10020000B751EF16120EE926B751EF1607DFB851B6
:10021000EF1204DF120EE95EB851EF14006E0CE02D
:10022000B5C001F0010E006E015004E000360090F0
:10023000FF0FFBD70050B613FFDEFEDEB52BDDD778
:06024000B6C000F0120040
:10024600010E0001B225E96E000EB321EA6EB4C0BC
:10025600D9FFB5C0DAFFEE50DE181CE1020EB2255A
:10026600016E000EB321026E010EB425D96E000E8A
:10027600B521DA6E01C0E9FF02C0EAFFEE50DE18D2
:1002860009E1020EBA6F010EBB6F450EBC6F000E80
:10029600BD6F3ADF010EB225E96E000EB321EA6E9C
:1002A600EE50320A0AE1020EB225E96E000EB321C3
:1002B600EA6EEE50390A01E10AD0010EB225E96E66
:1002C600000EB321EA6EEE50330A01E009D0020EA9
:1002D600BA6F010EBB6F1B0EBC6F000EBD6F14DF35
:0202E600120004
:1002E800086A080E0C6E003408360450085ED8B050
:0E02F80002D00826D89000360C2EF5D7120042
:100306000001B86BB96BB65342E0B651FF0AD8A4E8
:10031600B607E3DE0050000A01E1FBD7D5DE00C0D8
:10032600B7F00001B851B225E16E000EB321E26EBE
:1003360000C0E6FFB82BB951B425E96E000EB52111
:10034600EA6EEE50B71902E1B92B09D0B96BB4C009
:10035600E9FFB5C0EAFFEE50B719D8B4B92BB951C9
:10036600B425E96E000EB521EA6EEE50000A0EE1E4
:10037600B951B85D006E016A000E015A0050B225EF
:10038600E16E0150B321E26EE66A06D0BCD7B2C078
:0A039600E1FFB3C0E2FFE66A1200C7
:1003A0000B6A0A6A096A00500402F4CF09F0F3CF1D
:1003B00008F001500502F4CF0BF0F3CF0AF0005023
:1003C0000502F3500926F4500A22E86A0B22015074
:1003D0000402F3500926F4500A22E86A0B2208C0EE
:1003E00000F009C001F00AC002F00BC003F01200D7
:1003F000B4C001F0010E006E015004E00036009020
:10040000FF0FFBD700C0B6F0001EB2C0E9FFB3C0BB
:10041000EAFF0050EF16120EE9260050EF166CDED0
:100420000001B651EF12120EE95E5FDEB651EF1415
:10043000B56FB551000A000ED8A4010EB56F5CDE91
:06044000B5C000F012003F
:10044600B2C000F00032009E0032009E0032009ED4
:100456000032009E060E0024F66E0B0EF76E000E9E
:10046600F722000EF86E000EF8220900F5CF00F014
:10047600B3C0E1FFB4C0E2FF00C0E6FF010E000119
:10048600B325E16E000EB421E26E0F0EB215006EBA
:10049600060E0024F66E0B0EF76E000EF722000E07
:1004A600F86E000EF8220900F5CF00F000C0E6FF56
:1004B600020EB325E16E000EB421E26EE66A12006A
:1004C6000001B56BB2C0E9FFB3C0EAFFEECFB4F0EE
:1004D600B451000A0EE0B4C0BAF055DE0001B52BE7
:1004E600B551B225E96E000EB321EA6EEECFB4F037
:0404F600EFD712002A
:1004FA00B4C001F0010E006E015004E00036009015
:10050A00FF0FFBD700C0B8F0001E00C0B7F0B2C0A2
:10051A00E9FFB3C0EAFF0050EF16120EE926000108
:10052A00B66BB651070815E3B6C000F0B5C001F0C6
:10053A00005004E00132019EFF0FFBD7B751EF16BE
:10054A0001A002D0B851EF12CBDDB851EF12B62B91
:0C055A00E8D7120EE95E6BDD6ADD1200CE
:100566008C0E0001996F010E9A6FBA0E9B6F000EEA
:100576009C6FCE0E9E6F000E9F6F000EA06F000E3A
:10058600A16FE00EA66F000EA76F000EA86F000EFB
:10059600A96FFF0EA26FFF0EA36F000EA46F000ED1
:1005A600A56FAC8A900EAB6E948E949C9EAA03D0D7
:0805B600AECF00F0FBD71200EC
:1005BE00590E0001B26F000EB36F7EDF8ADD005060
:1005CE00010A10E1ACC0B2F0000EB36F570EB46F5B
:1005DE00000EB56F0A0EB66F8FDEACC0B2F0000E15
:0A05EE00B36F6ADFACC000F012002A
:1005F8000900F5CFE6FF0006FBE10106F9E112006C
:10060800939A939893909392939493968A9A8A98AC
:100618008A968A948A928A9000DDFFDCFEDC8A82C0
:100628008A808A8AF7DC8A9AF8DC8A8AF3DC8A9AD2
:10063800F4DC8A8AEFDC8A9AF0DC8A908A8AEADC1F
:100648008A9AEBDC8A8AE6DC8A9A8A928A868A8A7D
:10065800E1DC8A9AE2DC8A968A808A8ADBDC8A9ADA
:100668008A908A8AD7DC8A9AD8DC8A8AD3DC8A9AE2
:100678008A808A8ACFDC8A9AD0DC8A908A8ACADC05
:100688008A9A8A868A848A828A808A8AC3DC8A9A33
:08069800C4DC00019D81120089
:1006A000080E00018D5D006E016A000E015A00C047
:1006B000ACF0AAC0AEF0ABC0AFF0ABAF0AD053C045
:1006C000E1FF54C0E2FF2D0EE66EAE1FAF1FAE4B32
:1006D000AF2BACC002F0AEC000F0AFC001F00250D2
:1006E00005E001320032019EFF0FFAD700C0ADF0E5
:1006F000640E046EF9DD005206E053C0E1FF54C001
:10070000E2FF200EE66E010E5324B06F000E54205F
:10071000B16F0A0E046EADC000F0E6DD0A0E046E85
:10072000E3DD08C000F0300E0026B0C0E1FFB1C02C
:10073000E2FF00C0E6FF020E5324B06F000E54200B
:10074000B16F0A0E046EADC000F0CEDD08C000F03F
:10075000300E0026B0C0E1FFB1C0E2FF00C0E6FFEE
:10076000030E5324E16E000E5420E26E2E0EE66E50
:10077000AC510408006E016A000E015A00C002F07C
:10078000AEC000F0AFC001F0025005E000360090AE
:100790000136FF0FFAD70F0E0016000E0116710E6C
:1007A000046E020E056EFCDD040E5324B06F000EC5
:1007B0005420B16FE80E046E030E056EEEDC300EB1
:1007C0000026B0C0E1FFB1C0E2FF00C0E6FF53C0A9
:1007D000B2F054C0B3F055C0B4F056C0B5F033DD3C
:1007E000010EBA6F070EBB6F53C0BCF054C0BDF012
:1007F0008EDC270EBF6F64DC430EBF6F61DC12001E
:10080000840E0001B26F0F0EB36F020EB46FF0DDF5
:10081000840EB26F0F0EB36F020EB46FCC0EB56FB5
:100820006CDE840EB26F0F0EB36F020EB46F440E07
:10083000B56F63DE4F0E0D6E0D2EFED7000000006B
:10084000840EB26F0F0EB36F020EB46FD1DD840E43
:10085000B26F0F0EB36F020EB46FCC0EB56F4DDEDC
:10086000840EB26F0F0EB36F020EB46FBE0EB56F73
:1008700044DE840EB26F0F0EB36F020EB46FA8DCAD
:1008800000C0AAF0000EAB6F840EB26F0F0EB36FF4
:10089000020EB46F9DDC00C002F0016A0150AA276D
:0608A0000250AB23120020
:1008A600840E0001B26F0F0EB36F020EB46F9DDDA2
:1008B600840EB26F0F0EB36F020EB46F330EB56FA8
:1008C60019DE4F0E0D6E0D2EFED700000000840EB1
:1008D600B26F0F0EB36F020EB46F77DC00C08EF0EE
:1008E6000CD00C0E8D6F16D0090E8D6F13D08D6B3C
:1008F60011D08D6B0FD08D6B0DD08E51280AF1E083
:100906008E51100AF1E08E51010AF1E08E51FF0A74
:10091600F0E0F1D7840EB26F0F0EB36F020EB46F14
:1009260064DD840EB26F0F0EB36F020EB46F330E1A
:10093600B56FE0DD4F0E0D6E0D2EFED700000000E8
:100946008F6B906B800E006E800E9019005C02E13A
:100956008F51070816E3910E8F25AC6F000E90217C
:10096600AD6F840EB26F0F0EB36F020EB46F2DDC37
:10097600ACC0E1FFADC0E2FF00C0E6FF8F4B902B9D
:04098600E1D71200A3
:10098A0033D0010E0001BA6F010EBB6F150EBC6F9A
:10099A00000EBD6F87EC00F02FD0010EBA6F010E6A
:1009AA00BB6F290EBC6F000EBD6F87EC00F0020E04
:1009BA00BA6F010EBB6F340EBC6F000EBD6F87ECB1
:1009CA0000F01AD08EC0B2F08B0EB36F000EB46F67
:1009DA0035DD010EBA6F010EBB6F8B0EBC6F000EB8
:1009EA00BD6F87EC00F008D000018E51280AC9E0DB
:0A09FA008E51FF0AD2E0E6D712008A
:100A04008BEC05F0070EB4120D0EC16E806A956A68
:100A1400030E926E9684F6DDB886B06ACF0EAF6E82
:100A2400AC849FDD020E0B6E040E0C6EBA0E0D6EBE
:100A34000D2EFED70C2EFCD70B2EFAD70000010E7C
:100A4400C06F21EC00F00C0EC06F21EC00F0B5DD9E
:100A540000C055F0000E566E24DF95DF04D0CEDEC4
:100A64001DDE05D004D08E51280AF9E0FBD7020E12
:100A74000B6E040E0C6EBA0E0D6E0D2EFED70C2EE0
:0C0A8400FCD70B2EFAD70000E7D7FFD7F5
:100B160010EE15F0760E006E010E016E900EF66E5A
:0E0B26000A0EF76E000EF86EFCEC02F01200E4
:060A900054656D703A0090
:0E0A96004D61782E204174696E6769646F00AF
:0B0AA4004572726F72203430343A004B
:100AAF0053656E736F72206E6F7420666F756E6410
:010ABF000036
:0E0AC0004D696E2E204174696E6769646F0087
:020ACE008200A4
:020AD00088009C
:020AD2000D0015
:100AD40054656D7065726174757261204D696E69DB
:100AE4006D613A203C456E746572207061726120BC
:090AF400656E766961723E0A002C
:060AFD0030302E30300005
:030B03003233008A
:100B0600303132333435363738394142434445463D
:020000040030CA
:0E000000000C1F1EFF8381FF0FC00FE00F409A
:00000001FF
