:10000000FEEF04F00000000000EF00F00000000030
:0A0010000000000000000000F3D71C
:06001C00000000001200CC
:100022000F0E0C6E470E0D6E0D2EFED70C2EFCD74A
:06003200000000001200B6
:0A003800210E0D6E0D2EFED71200F2
:100042000001C6BF02D08A9601D08A86C6BD02D000
:100052008A9401D08A84C6BB02D08A9201D08A8255
:10006200C6B902D08A9001D08A80A3B102D08A8810
:1000720001D08A988A8AD1DF8A9AC6B702D08A9634
:1000820001D08A86C6B502D08A9401D08A84C6B3CA
:1000920002D08A9201D08A82C6B102D08A9001D05F
:1000A2008A80A3B102D08A8801D08A988A8AB5DF71
:0E00B2008A9AA3A102D0B4DF01D0BDDF1200F4
:0E00C0000001A391C5C0C6F0BCDFA3811200F1
:1000CE00AECF01F0ABA202D0AB98AB8801C000F06E
:0200DE0012000E
:0A00E000000E9EBA010E006E120021
:0E00EA00330E0D6E0D2EFED70000000012002A
:1000F800020E0C6E490E0D6E0D2EFED70C2EFCD77F
:06010800000000001200DF
:10010E0010D0800E0001C06F1AD0C00EC06F17D075
:10011E00940EC06F14D0D40EC06F11D0800EC06F6D
:10012E000ED00001C051010AECE0C051020AEDE010
:10013E00C051030AEDE0C051040AEDE0EFD7C1054E
:10014E00006EC051002600C0C0F000C0C6F072DFC5
:10015E00A391C46BC451C225E96E000EC321EA6E91
:10016E00EE520BE0C451C225E96E000EC321EA6EB9
:0E017E00EECFC5F09EDFC42BEDD7A38112009B
:0E018C00ACB202D00000FCD7C0C0ADFF120024
:10019A00086A096A100E0C6E0134083609360450D2
:1001AA00085E0550D8A0053C095ED8B007D00450B7
:1001BA0008260550D8B0053C0926D89000360136E5
:0601CA000C2EEAD7120022
:1001D000BAC001F0010E006E015004E0003600903C
:1001E000FF0FFBD700C0BEF0001C0001BD6FBC6B51
:1001F000B8C0E9FFB9C0EAFFBB6BBB51070820E3F9
:10020000BD51EF16120EE926BD51EF1607DFBE51A4
:10021000EF1204DF120EE95EBE51EF14006E0CE027
:10022000BBC001F0010E006E015004E000360090EA
:10023000FF0FFBD70050BC13FFDEFEDEBB2BDDD76C
:06024000BCC000F012003A
:10024600010E0001B825E96E000EB921EA6EEE50E6
:10025600320A0AE1020EB825E96E000EB921EA6EED
:10026600EE50310A01E10AD0010EB825E96E000E02
:10027600B921EA6EEE50310A01E009D0020EC06FD4
:10028600010EC16F450EC26F000EC36F3DDF010E3A
:10029600B825E96E000EB921EA6EEE50320A0AE17F
:1002A600020EB825E96E000EB921EA6EEE50390A43
:1002B60001E10AD0010EB825E96E000EB921EA6EF9
:1002C600EE50330A01E009D0020EC06F010EC16F75
:0C02D6001B0EC26F000EC36F17DF12007A
:1002E200086A080E0C6E003408360450085ED8B056
:0E02F20002D00826D89000360C2EF5D7120048
:100300000001BE6BBF6BBC5342E0BC51FF0AD8A4D6
:10031000BC07E6DE0050000A01E1FBD7D8DE00C0D2
:10032000BDF00001BE51B825E16E000EB921E26EAC
:1003300000C0E6FFBE2BBF51BA25E96E000EBB21FF
:10034000EA6EEE50BD1902E1BF2B09D0BF6BBAC0F7
:10035000E9FFBBC0EAFFEE50BD19D8B4BF2BBF51B7
:10036000BA25E96E000EBB21EA6EEE50000A0EE1DE
:10037000BF51BE5D006E016A000E015A0050B825E3
:10038000E16E0150B921E26EE66A06D0BCD7B8C072
:0A039000E1FFB9C0E2FFE66A1200C7
:10039A000B6A0A6A096A00500402F4CF09F0F3CF23
:1003AA0008F001500502F4CF0BF0F3CF0AF0005029
:1003BA000502F3500926F4500A22E86A0B2201507A
:1003CA000402F3500926F4500A22E86A0B2208C0F4
:1003DA0000F009C001F00AC002F00BC003F01200DD
:1003EA00BAC001F0010E006E015004E00036009020
:1003FA00FF0FFBD700C0BCF0001EB8C0E9FFB9C0B0
:10040A00EAFF0050EF16120EE9260050EF166FDED3
:10041A000001BC51EF12120EE95E62DEBC51EF140C
:10042A00BB6FBB51000A000ED8A4010EBB6F5FDE82
:06043A00BBC000F012003F
:10044000B8C000F00032009E0032009E0032009ED4
:100450000032009EFE0E0024F66E0A0EF76E000EAD
:10046000F722000EF86E000EF8220900F5CF00F01A
:10047000B9C0E1FFBAC0E2FF00C0E6FF010E000113
:10048000B925E16E000EBA21E26E0F0EB815006EAE
:10049000FE0E0024F66E0A0EF76E000EF722000E16
:1004A000F86E000EF8220900F5CF00F000C0E6FF5C
:1004B000020EB925E16E000EBA21E26EE66A120064
:1004C0000001BB6BB8C0E9FFB9C0EAFFEECFBAF0DC
:1004D000BA51000A0EE0BAC0C0F058DE0001BB2BD2
:1004E000BB51B825E96E000EB921EA6EEECFBAF025
:0404F000EFD7120030
:1004F400BAC001F0010E006E015004E00036009015
:10050400FF0FFBD700C0BEF0001E00C0BDF0B8C096
:10051400E9FFB9C0EAFF0050EF16120EE926000108
:10052400BC6BBC51070815E3BCC000F0BBC001F0B4
:10053400005004E00132019EFF0FFBD7BD51EF16BE
:1005440001A002D0BE51EF12CEDDBE51EF12BC2B82
:0C055400E8D7120EE95E6EDD6DDD1200CE
:100560008C0E00019F6F010EA06FC00EA16F000ED8
:10057000A26FCE0EA46F000EA56F000EA66F000E28
:10058000A76FE00EAC6F000EAD6F000EAE6F000EE9
:10059000AF6FFF0EA86FFF0EA96F000EAA6F000EBF
:1005A000AB6FAC8A900EAB6E948E949C9EAA03D0D7
:0805B000AECF00F0FBD71200F2
:1005B800550E0001B86F000EB96F7EDF8DDD00505B
:1005C800010A15E1800EB86F000EB96F75DFB2C071
:1005D800B8F0B3C0B9F07E0EBA6F000EBB6F0A0E4A
:1005E800BC6F8ADEB2C0B8F0B3C0B9F065DF1200E4
:1005F8000900F5CFE6FF0006FBE10106F9E112006C
:10060800939A939893909392939493968A9A8A98AC
:100618008A968A948A928A9000DDFFDCFEDC8A82C0
:100628008A808A8AF7DC8A9AF8DC8A8AF3DC8A9AD2
:10063800F4DC8A8AEFDC8A9AF0DC8A908A8AEADC1F
:100648008A9AEBDC8A8AE6DC8A9A8A928A868A8A7D
:10065800E1DC8A9AE2DC8A968A808A8ADBDC8A9ADA
:100668008A908A8AD7DC8A9AD8DC8A8AD3DC8A9AE2
:100678008A808A8ACFDC8A9AD0DC8A908A8ACADC05
:100688008A9A8A868A848A828A808A8AC3DC8A9A33
:08069800C4DC0001A381120083
:1006A000080E0001935D006E016A000E015A00C041
:1006B000B2F0B0C0B4F0B1C0B5F0B1AF0AD053C021
:1006C000E1FF54C0E2FF2D0EE66EB41FB51FB44B20
:1006D000B52BB2C002F0B4C000F0B5C001F00250BA
:1006E00005E001320032019EFF0FFAD700C0B3F0DF
:1006F000640E046EF6DD005206E053C0E1FF54C004
:10070000E2FF200EE66E010E5324B66F000E542059
:10071000B76F0A0E046EB3C000F0E3DD0A0E046E7C
:10072000E0DD08C000F0300E0026B6C0E1FFB7C023
:10073000E2FF00C0E6FF020E5324B66F000E542005
:10074000B76F0A0E046EB3C000F0CBDD08C000F036
:10075000300E0026B6C0E1FFB7C0E2FF00C0E6FFE2
:10076000030E5324E16E000E5420E26E2E0EE66E50
:10077000B2510408006E016A000E015A00C002F076
:10078000B4C000F0B5C001F0025005E000360090A2
:100790000136FF0FFAD70F0E0016000E0116710E6C
:1007A000046E020E056EF9DD040E5324B66F000EC2
:1007B0005420B76FE80E046E030E056EEEDC300EAB
:1007C0000026B6C0E1FFB7C0E2FF00C0E6FF53C09D
:1007D000B8F054C0B9F037DD010EC06F070EC16F1D
:1007E00053C0C2F054C0C3F092DC270EC56F68DC62
:0807F000430EC56F65DC120029
:1007F800840E0001B86F0F0EB96F020EBA6FF1DDEB
:10080800840EB86F0F0EB96F020EBA6FCC0EBB6FA5
:100818006DDE840EB86F0F0EB96F020EBA6F440EFC
:10082800BB6F64DE4F0E0D6E0D2EFED7000000006C
:10083800840EB86F0F0EB96F020EBA6FD2DD840E38
:10084800B86F0F0EB96F020EBA6FCC0EBB6F4EDECB
:10085800840EB86F0F0EB96F020EBA6FBE0EBB6F63
:1008680045DE840EB86F0F0EB96F020EBA6FACDC9E
:1008780000C0B0F0000EB16F840EB86F0F0EB96FE4
:10088800020EBA6FA1DC00C002F0016A0150B02765
:060898000250B123120022
:10089E00840E0001B86F0F0EB96F020EBA6F9EDD97
:1008AE00840EB86F0F0EB96F020EBA6F330EBB6F98
:1008BE001ADE4F0E0D6E0D2EFED700000000840EB8
:1008CE00B86F0F0EB96F020EBA6F7BDC00C094F0DA
:1008DE000CD00C0E936F16D0090E936F13D0936B32
:1008EE0011D0936B0FD0936B0DD09451280AF1E079
:1008FE009451100AF1E09451010AF1E09451FF0A6B
:10090E00F0E0F1D7840EB86F0F0EB96F020EBA6F0A
:10091E0065DD840EB86F0F0EB96F020EBA6F330E0F
:10092E00BB6FE1DD4F0E0D6E0D2EFED700000000E9
:10093E00956B966B800E006E800E9619005C02E130
:10094E009551070816E3970E9525B26F000E962166
:10095E00B36F840EB86F0F0EB96F020EBA6F31DC23
:10096E00B2C0E1FFB3C0E2FF00C0E6FF954B962B8D
:04097E00E1D71200AB
:1009820033D0010E0001C06F010EC16F150EC26F90
:10099200000EC36F87EC00F02FD0010EC06F010E66
:1009A200C16F290EC26F000EC36F87EC00F0020EFA
:1009B200C06F010EC16F340EC26F000EC36F87ECA1
:1009C20000F01AD094C0B8F0910EB96F000EBA6F51
:1009D20036DD010EC06F010EC16F910EC26F000EA7
:1009E200C36F87EC00F008D000019451280AC9E0D7
:0A09F2009451FF0AD2E0E6D712008C
:1009FC0087EC05F0070EB4120D0EC16E806A956A75
:100A0C00030E926E9684FADDB886B06ACF0EAF6E86
:100A1C00AC84A0DD958E020E0B6E040E0C6EBA0E1D
:100A2C000D6E0D2EFED70C2EFCD70B2EFAD7000018
:100A3C00010EC66F21EC00F00C0EC66F21EC00F01D
:100A4C00B5DD27DF98DF04D0D1DE24DE05D004D05D
:100A5C009451280AF9E0FBD7020E0B6E040E0C6EB3
:100A6C00BA0E0D6E0D2EFED70C2EFCD70B2EFAD710
:060A7C000000E7D7FFD7E0
:100B0E0010EE15F07C0E006E010E016E820EF66E6A
:0E0B1E000A0EF76E000EF86EFCEC02F01200EC
:060A820054656D703A009E
:0E0A88004D61782E204174696E6769646F00BD
:0B0A96004572726F72203430343A0059
:100AA10053656E736F72206E6F7420666F756E641E
:010AB1000044
:0E0AB2004D696E2E204174696E6769646F0095
:020AC0008B00A9
:100AC20054656D7065726174757261204D696E69ED
:100AD2006D613A203C456E746572207061726120CE
:090AE200656E766961723E0A003E
:020AEB000D00FC
:0B0AED0064617461207265616479002F
:060AF80030302E3030000A
:100AFE003031323334353637383941424344454646
:020000040030CA
:0E000000000C1F1EFF8381FF0FC00FE00F409A
:00000001FF
