:10000000F5EF04F00000000000EF00F00000000039
:0A0010000000000000000000F3D71C
:06001C00000000001200CC
:100022000F0E0C6E470E0D6E0D2EFED70C2EFCD74A
:06003200000000001200B6
:0A003800210E0D6E0D2EFED71200F2
:100042000001DDBF02D08A9601D08A86DDBD02D0D2
:100052008A9401D08A84DDBB02D08A9201D08A823E
:10006200DDB902D08A9001D08A80BBB102D08A88E1
:1000720001D08A988A8AD1DF8A9ADDB702D08A961D
:1000820001D08A86DDB502D08A9401D08A84DDB39C
:1000920002D08A9201D08A82DDB102D08A9001D048
:1000A2008A80BBB102D08A8801D08A988A8AB5DF59
:0E00B2008A9ABBA102D0B4DF01D0BDDF1200DC
:0E00C0000001BB91DCC0DDF0BCDFBB81120093
:1000CE00020E0C6E490E0D6E0D2EFED70C2EFCD7A9
:0600DE000000000012000A
:0E00E400330E0D6E0D2EFED700000000120030
:1000F20010D0800E0001D76F1AD0C00ED76F17D064
:10010200940ED76F14D0D40ED76F11D0800ED76F44
:100112000ED00001D751010AECE0D751020AEDE0FE
:10012200D751030AEDE0D751040AEDE0EFD7D80525
:10013200006ED751002600C0D7F000C0DDF080DF8E
:10014200BB91DB6BDB51D925E96E000EDA21EA6E39
:10015200EE520BE0DB51D925E96E000EDA21EA6E90
:0E016200EECFDCF0ACDFDB2BEDD7BB81120063
:10017000086A080E0C6E003408360450085ED8B0C9
:0E01800002D00826D89000360C2EF5D71200BB
:0E018E00ACB202D00000FCD7D0C0ADFF120012
:10019C000B6A0A6A096A00500402F4CF09F0F3CF23
:1001AC0008F001500502F4CF0BF0F3CF0AF0005029
:1001BC000502F3500926F4500A22E86A0B2201507A
:1001CC000402F3500926F4500A22E86A0B2208C0F4
:1001DC0000F009C001F00AC002F00BC003F01200DD
:1001EC00010E0001D025E96E000ED121EA6ED2C0BD
:1001FC00D9FFD3C0DAFFEE50DE181CE1020ED02579
:10020C00016E000ED121026E010ED225D96E000EA8
:10021C00D321DA6E01C0E9FF02C0EAFFEE50DE180E
:10022C0009E1020ED76F010ED86F150ED96F000EB3
:10023C00DA6F59DF010ED025E96E000ED121EA6E7E
:10024C00020ED225D96E000ED321DA6EEE50DE18D6
:10025C000AE1020ED025E96E000ED121EA6EEE50B5
:10026C00390A01E114D0010ED025016E000ED12106
:10027C00026E030ED225D96E000ED321DA6E01C0A8
:10028C00E9FF02C0EAFFEE50DE1801E009D0020ED1
:10029C00D76F010ED86F870ED96F000EDA6F23DF80
:0202AC0012003E
:1002AE00086A096A100E0C6E0134083609360450BD
:1002BE00085E0550D8A0053C095ED8B007D00450A2
:1002CE0008260550D8B0053C0926D89000360136D0
:0602DE000C2EEAD712000D
:1002E400D2C001F0010E006E015004E0003600900F
:1002F400FF0FFBD700C0D4F0001ED0C0E9FFD1C06F
:10030400EAFF0050EF16120EE9260050EF16DDDE6C
:100314000001D451EF12120EE95EE2DED451EF1463
:10032400D36FD351000A000ED8A4010ED36FCDDED3
:06033400D3C000F012002E
:10033A00D0C000F00032009E0032009E0032009EC3
:10034A000032009E440E0024F66E0B0EF76E000E6D
:10035A00F722000EF86E000EF8220900F5CF00F021
:10036A00D1C0E1FFD2C0E2FF00C0E6FF010E0001EA
:10037A00D125E16E000ED221E26E0F0ED015006E6D
:10038A00440E0024F66E0B0EF76E000EF722000ED6
:10039A00F86E000EF8220900F5CF00F000C0E6FF63
:1003AA00020ED125E16E000ED221E26EE66A12003B
:1003BA00AECF01F0ABA202D0AB98AB8801C000F07F
:0203CA0012001F
:1003CC00D2C001F0010E006E015004E00036009026
:1003DC00FF0FFBD700C0D6F0001C0001D56FD46B0B
:1003EC00D0C0E9FFD1C0EAFFD36BD351070820E39B
:1003FC00D551EF16120EE926D551EF1609DED6515E
:10040C00EF1206DE120EE95ED651EF14006E0CE010
:10041C00D3C001F0010E006E015004E000360090D4
:10042C00FF0FFBD70050D41301DE00DED32BDDD73A
:06043C00D4C000F0120024
:0A044200000E9EBA010E006E1200BB
:10044C00D2C001F0010E006E015004E000360090A5
:10045C00FF0FFBD700C0D6F0001E00C0D5F0D0C0F7
:10046C00E9FFD1C0EAFF0050EF16120EE926000199
:10047C00D46BD451070815E3D4C000F0D3C001F0FD
:10048C00005004E00132019EFF0FFBD7D551EF164F
:10049C0001A002D0D651EF121FDED651EF12D42B91
:0C04AC00E8D7120EE95EC2DDC1DD1200CF
:1004B8008E0E0001B76F010EB86FD00EB96F000E27
:1004C800BA6FBA0EBC6F030EBD6F000EBE6F000E82
:1004D800BF6F420EC46F040EC56F000EC66F000ECC
:1004E800C76FFF0EC06FFF0EC16F000EC26F000E08
:1004F800C36FAC8A900EAB6E948E949C9EAA03D068
:08050800AECF00F0FBD712009A
:100510000900F5CFE6FF0006FBE10106F9E1120054
:100520000001CB6BC8C0E9FFC9C0EAFFEECFCAF03B
:10053000CA51000A0EE0CAC0D0F029DE0001CB2B60
:10054000CB51C825E96E000EC921EA6EEECFCAF084
:04055000EFD71200CF
:10055400939A939893909392939493968A9A8A9861
:100564008A968A948A928A905ADD59DD58DD8A8265
:100574008A808A8A51DD8A9A52DD8A8A4DDD8A9A76
:100584004EDD8A8A49DD8A9A4ADD8A908A8A44DD68
:100594008A9A45DD8A8A40DD8A9A8A928A868A8A7C
:1005A4003BDD8A9A3CDD8A968A808A8A35DD8A9A7E
:1005B4008A908A8A31DD8A9A32DD8A8A2DDD8A9A86
:1005C4008A808A8A29DD8A9A2ADD8A908A8A24DDA9
:1005D4008A9A8A868A848A828A808A8A1DDD8A9A8D
:0805E4001EDD0001BB811200C5
:1005EC00840E0001D06F0F0ED16F020ED26F74DE2D
:1005FC00840ED06F0F0ED16F020ED26FCC0ED36F54
:10060C001FDF840ED06F0F0ED16F020ED26F440E0F
:10061C00D36F16DF4F0E0D6E0D2EFED700000000AF
:10062C00840ED06F0F0ED16F020ED26F55DE840E7A
:10063C00D06F0F0ED16F020ED26FCC0ED36F00DFC6
:10064C00840ED06F0F0ED16F020ED26FBE0ED36F11
:10065C00F7DE840ED06F0F0ED16F020ED26FB0DEAC
:10066C0000C0B5F0000EB66F840ED06F0F0ED16FB8
:10067C00020ED26FA5DE00C002F0016A0150B52750
:06068C000250B62312002B
:10069200080E0001A75D006E016A000E015A00C03B
:1006A200C8F0B5C0CAF0B6C0CBF0B6AF0AD097C09A
:1006B200E1FF98C0E2FF2D0EE66ECA1FCB1FCA4BA8
:1006C200CB2BC8C002F0CAC000F0CBC001F0025070
:1006D20005E001320032019EFF0FFAD700C0C9F0D7
:1006E200640E046E44DD005206E097C0E1FF98C03C
:1006F200E2FF200EE66E010E9725CC6F000E9821C8
:10070200CD6F0A0E046EC9C000F031DD0A0E046E10
:100712002EDD08C000F0300E0026CCC0E1FFCDC0B7
:10072200E2FF00C0E6FF020E9725CC6F000E982173
:10073200CD6F0A0E046EC9C000F019DD08C000F0CA
:10074200300E0026CCC0E1FFCDC0E2FF00C0E6FFC4
:10075200030E9725E16E000E9821E26E2E0EE66ED4
:10076200C8510408006E016A000E015A00C002F06E
:10077200CAC000F0CBC001F0025005E00036009084
:100782000136FF0FFAD70F0E0016000E0116710E7A
:10079200046E020E056E01DD040E9725CC6F000E6D
:1007A2009821CD6FE80E046E030E056E7FDD300ECC
:1007B2000026CCC0E1FFCDC0E2FF00C0E6FF97C03B
:1007C200D0F098C0D1F095C0D2F096C0D3F00DDD34
:1007D200010ED76F070ED86F97C0D9F098C0DAF024
:1007E20087DC270EDC6F6BDC430EDC6F68DC1200EB
:1007F2000001CE6BCF6BCC5342E0CC51FF0AD8A4A0
:10080200CC071EDE0050000A01E1FBD7D5DD00C097
:10081200CDF00001CE51C825E16E000EC921E26E75
:1008220000C0E6FFCE2BCF51CA25E96E000ECB21C8
:10083200EA6EEE50CD1902E1CF2B09D0CF6BCAC0C0
:10084200E9FFCBC0EAFFEE50CD19D8B4CF2BCF5180
:10085200CA25E96E000ECB21EA6EEE50000A0EE1C7
:10086200CF51CE5D006E016A000E015A0050C825BC
:10087200E16E0150C921E26EE66A06D0BCD7C8C05B
:0A088200E1FFC9C0E2FFE66A1200C0
:10088C00840E0001D06F0F0ED16F020ED26F24DDDB
:10089C00840ED06F0F0ED16F020ED26F330ED36F4A
:1008AC00CFDD4F0E0D6E0D2EFED700000000840E16
:1008BC00D06F0F0ED16F020ED26F82DD00C0B4F07C
:1008CC000CD00C0EA76F16D0090EA76F13D0A76B08
:1008DC0011D0A76B0FD0A76B0DD0B451280AF1E043
:1008EC00B451100AF1E0B451010AF1E0B451FF0A1D
:1008FC00F0E0F1D7840ED06F0F0ED16F020ED26FD5
:10090C00EBDC840ED06F0F0ED16F020ED26F330E54
:10091C00D36F96DD4F0E0D6E0D2EFED7000000002E
:10092C00AA6BAB6B800E006E800EAB19005C02E103
:10093C00AA51070816E3AC0EAA25C86F000EAB210E
:10094C00C96F840ED06F0F0ED16F020ED26F38DDCF
:10095C00C8C0E1FFC9C0E2FF00C0E6FFAA4BAB2B49
:04096C00E1D71200BD
:1009700033D0010E0001D76F010ED86F230ED96F4F
:10098000000EDA6F79EC00F02FD0010ED76F010E58
:10099000D86F3A0ED96F000EDA6F79EC00F0020EC4
:1009A000D76F010ED86F290ED96F000EDA6F79EC70
:1009B00000F01AD0B4C0D0F0A80ED16F000ED26FE4
:1009C000BCDC010ED76F010ED86FA80ED96F000ED8
:1009D000DA6F79EC00F008D00001B451280AC9E0C0
:0A09E000B451FF0AD2E0E6D712007E
:1009EA00AAEC05F0B886B06ACF0EAF6EAC845FDDB4
:1009FA00020E0B6E040E0C6EBA0E0D6E0D2EFED785
:100A0A000C2EFCD70B2EFAD700000D0EC16E806A91
:100A1A00030E926E968499DD020E0B6E040E0C6E16
:100A2A00BA0E0D6E0D2EFED70C2EFCD70B2EFAD752
:100A3A000000010EDD6F21EC00F00C0EDD6F21ECE1
:100A4A0000F0450EC86F000EC96F65DD1ADF8BDF37
:100A5A00F3DC0050010A10E195C0C8F096C0C9F055
:100A6A00990ECA6F000ECB6F0A0ECC6FBDDE95C011
:100A7A00C8F096C0C9F04FDD04D0B3DD05DE05D05D
:100A8A0004D0B451280AF9E0FBD7020E0B6E040E0B
:100A9A000C6EBA0E0D6E0D2EFED70C2EFCD70B2E39
:080AAA00FAD70000D3D7FFD7F3
:100B540010EE15F0920E006E010E016EB20EF66EDE
:0E0B64000A0EF76E000EF86E88EC02F012001A
:0E0AB2004D696E2E204174696E6769646F0095
:060AC00054656D703A0060
:100AC60053656E736F72206E6F7420666F756E64F9
:010AD600001F
:0B0AD7004572726F72203430343A0018
:100AE20054656D706572617475726173204D696EC3
:100AF200696D612065206D6178696D613A203C65A0
:100B020078656D706C6F3A2031362C32312E20654B
:100B12006E746572207061726120656E76696172B1
:020B22003E0093
:0E0B24004D61782E204174696E6769646F0020
:020B32009B0026
:020B3400A1001E
:020B36000D00B0
:060B380030302C303000CB
:060B3E0030302E303000C3
:100B440030313233343536373839414243444546FF
:020000040030CA
:0E000000000C1F1EFF8381FF0FC00FE00F409A
:00000001FF
